:1000000000000120C5360000ED360000EF3600008C
:10001000F1360000F3360000F53600000000000065
:10002000000000000000000000000000F7360000A3
:10003000F936000000000000FB360000FD3600002D
:10004000FF360000FF360000B9170000DD11000088
:10005000FF360000FF360000FF360000FF360000CC
:10006000FF360000FF360000FF360000FF360000BC
:10007000FF360000FF360000FF360000FF360000AC
:10008000FF360000FF360000FF360000FF3600009C
:10009000FF360000FF360000FF360000FF3600008C
:1000A000FF360000FF360000FF360000FF3600007C
:1000B000FF360000FF3600000000000000000000D6
:1000C000FF360000FF360000FF360000FF3600005C
:1000D000FF360000FF360000FF3600000000000081
:1000E0000000000000000000000000000000000010
:1000F0000000000000000000000000000000000000
:1001000000000000000000000000000000000000EF
:1001100000000000000000000000000000000000DF
:1004000010B5054C237833B9044B13B10448AFF34E
:1004100000800123237010BDEC05002000000000C7
:1004200048530000084B10B51BB108490848AFF30A
:1004300000800848036803B910BD074B002BFBD0B0
:10044000BDE81040184700BF00000000F005002084
:1004500048530000E805002000000000154B002B69
:1004600008BF134B9D46A3F5803A00218B460F46EB
:100470001348144A121A00F065F80F4B002B00D0F5
:1004800098470E4B002B00D0984700200021040015
:100490000D000D48002802D00C48AFF3008000F09A
:1004A0002BF82000290001F057FE00F011F800BFE2
:1004B0000000080000000120000000000000000013
:1004C000EC0500209C0B0020000000000000000054
:1004D00008B5074B044613B10021AFF30080054B6C
:1004E0001868836A03B19847204600F033F800BFCC
:1004F00000000000F44B000070B50E4B0E4CE41AE7
:10050000A41000251E46A54204D056F82530984771
:100510000135F8E704F062FB084C094BE41AA4101B
:1005200000251E46A54204D056F8253098470135CF
:10053000F8E770BDE0050020E0050020E40500209C
:10054000E005002002440346934202D003F8011B59
:10055000FAE77047FEE700BF0378012B04BF014AAA
:1005600013707047080700202DE9F04FC7B01C46F4
:100570009248002914BF0A23002316460D46009313
:1005800001F00EF9002840F0E480002C00F0E58036
:1005900006AB83460193519B539A9E1820250296E1
:1005A00058460099019A0B46034404933133D318FB
:1005B0000393171800295FD07B4203F003038B429B
:1005C00028BF0B46062900F2EB800B46019A012B4F
:1005D000155407F1010200F0E180022B7D7007F154
:1005E000020200F0DB80032BBD7007F1030200F074
:1005F000D580042BFD7007F1040200F0CF80062B9C
:100600003D7107F1050240F0D1807D71BA1D9E4613
:10061000009999422ED0009EC3EB060AAAF104016C
:1006200006F1FF3B8908C3EB0B0B0131BBF1020F55
:100630004FEA810C12D90344019E4FF0203001296A
:1006400006EB030BF05005D00229CBF8040001D0D3
:10065000CBF80800D4456244E6440BD000981570EE
:100660000EF10103834205D20EF1020E7045557062
:1006700000D99570009B1F44039B059707F1330930
:1006800007F1030A264603F101084C46029FDDF8F4
:1006900044910DE00AF8035C0AF8025C0AF8015C78
:1006A0000AF1030AA24508F8015C08F101082FD0FD
:1006B000BE42EFD24E456BD2509B13F806B00AF8FB
:1006C000015C4FEA2B105FFA80FE09280BF00F0047
:1006D000D4BF0EF1300E0EF1370E092894BF303022
:1006E00037300AF803EC0AF8020C03F091F9584489
:1006F0000AF1030A407810F0970F08BF4FF02E0B55
:10070000A24508F801BC06F1010608F10108CFD1A5
:10071000049B03980297059F019903F1430A0D2258
:100720000A23027443745246254887F8305003F078
:100730008BF95FFA8AF222492048344600F084FFA0
:1007400038B91E4801F02CF818B9029B9C42FFF4FE
:1007500028AF204647B0BDE8F08F55B306A82B68F8
:10076000184A01904FF4807103F016FA0028F0DB6C
:100770000546304603F042FA019BC22828BFC2203A
:10078000834602463146581903F05EF9AB4402E74E
:10079000C9EB0600529B13F800B090E79E4637E77E
:1007A000002B7FF413AF3A469E4634E74FF0050E18
:1007B0002EE706AB25460193DBE700BF640000206F
:1007C00008060020184C00002DE9F0416B48C6B027
:1007D0000C4616461D4600F0E3FFA8B9C4B106AFAB
:1007E0002368674A38464FF4807103F0D5F9002832
:1007F0000ADB4C9B8046062B00F2BD80DFE803F04D
:10080000146670327C405200002046B0BDE8F08192
:100810004C9B062B00F2AC80DFE803F0049C969022
:10082000847E8A004FF00008304603F0E7F900EBC1
:100830000803FF2B044640F29380002CE4DB08EB16
:100840000402B2F5807FDFD8D4B206A94D4803F088
:10085000FBF822464B49494800F0F6FEB0FA80F01A
:100860004009D2E7C0F58071AA686C682B680192D4
:100870000094324607EB080003F08EF90446DCE7EB
:10088000C0F580712869EA682B680390AC686D68D0
:10089000009502920194324607EB080003F07CF9C0
:1008A0000446CAE7C0F580716A6928692B6804921A
:1008B000EA680390AC686D68009502920194324634
:1008C00007EB080003F068F90446B6E7C0F580714D
:1008D0002B68324607EB080003F05EF90446ACE7EC
:1008E000C0F580716A682B68009207EB08003246F9
:1008F00003F052F90446A0E7C0F58071EA68AC68DD
:100900002B686D68009502920194324607EB08004F
:1009100003F042F9044690E74FF480714FF000086D
:1009200006AFAFE74FF480714FF0000806AFE5E780
:100930004FF480714FF0000806AFB5E74FF48071B7
:100940004FF0000806AF8FE74FF480714FF00008BA
:1009500006AFC7E74FF480714FF0000806AFB7E766
:1009600006AB314603EB0800224603F06DF864E75E
:100970000024224669E7002461E700BF64000020EC
:10098000184C000008060020F0B51A4F3B7889B0DB
:100990001BB1194B1B78834229D0184D06460FCD49
:1009A0006C460FC495E80F004FF0000E84E80F006E
:1009B0000625052107224FF0EB7311480391082407
:1009C00002928DF814E000950194069300F0B6FDB4
:1009D000002E0C4A0A4818BF0022694600F0C0FCED
:1009E00018B9054A012316703B7009B0F0BD00200C
:1009F00009B0F0BD0A07002009070020F84B0000ED
:100A0000640000205905000000487047C907000035
:100A1000004870476905000038B50020FFF7B4FFB3
:100A2000044668B9FFF7F0FF0546FFF7F1FF054BF5
:100A3000FF22C3F810541C605C60C3F814049A6071
:100A4000204638BD0C0700200120FFF79DBF00BFE6
:100A50002DE9F041224C064600200D46A76800F023
:100A60000FF9A2686368D4F8008013440133C8EB1F
:100A70000303012B1BD8ABB10121002361F3010358
:100A80006FF38203052161F3C50308EA02021549E9
:100A900004EB82026FF3891308F1010761F39F23CE
:100AA0002760D3600020BDE8F04100F0F1B808F104
:100AB00001030020236000F0EBF80122002362F321
:100AC00001036FF3820307EA080766F3C50304EB2B
:100AD00087046FF3891365F39F23E360BDE8F0811A
:100AE0000C070020204C00002DE9F0474C4E96E802
:100AF0000C009A428AB070D0B06804E0C4F3891246
:100B000002EB9452134400EA0305023506EB85021A
:100B10000133546814F00302F0D0022A28D0C4F341
:100B20008312C4F3952C002A75D00DF1100E754672
:100B3000D71800EA030106EB81010133C96845F8C3
:100B4000041BBB42F5D10092C4F3C2007346624657
:100B5000D6F81044324D0021A04738B17760306894
:100B6000C01B18BF01200AB0BDE8F0876F68F6E728
:100B700003F1010A20EA0A010340013106EB830375
:100B800089004FEA94588845DA68DFF894E0C4F3A6
:100B9000891326D9A9B300EA0A0C5FFA81F90EEB92
:100BA0008C0CC9EB08010CF10C0C0EF10C00C9B255
:100BB00003910290CDF80490CDF800C00021C4F359
:100BC000C200D6F81474B847404520D006EB85051E
:100BD00060F38F146C607768C1E700200AB0BDE84D
:100BE000F08700EA0A000EEB80000C308DE801016E
:100BF0000021DEF8149403910291C4F3C200C847A7
:100C0000E2E70EF10C0C08465FFA88F9D0E70330F2
:100C10000AEB9007A2E71F460DF1100E93E700BF05
:100C20000C07002000B585B000230390194601AAE7
:100C300044F20100ADF80430029300F003F805B06F
:100C40005DF804FB08B50B490120FFF701FFFFF732
:100C5000FBFEFFF749FF0028FBD1BFF34F8F06498A
:100C6000064BCA6802F4E0621343CB60BFF34F8FB8
:100C700000BFFDE72C4C000000ED00E00400FA0589
:100C800072B6024A1368013313607047240B0020C8
:100C9000034A1368013B136003B962B6704700BF93
:100CA000240B0020002810B418DB00F1604303F58A
:100CB00061434901C9B283F80013C3B240098000FF
:100CC00000F1604000F5614003F01F0201239340F2
:100CD000C0F8803103605DF8044B7047C3B2044A2A
:100CE00003F00F0449012244C9B21176E6E700BFC0
:100CF000FCEC00E02DE9F04F0579244EAF0007EB46
:100D0000050E4FEACE0E06EB0E0C83B09CF8224087
:100D10001CB1082003B0BDE8F08F46F80E20CCF8D7
:100D20000840CCF804308CF825408CF824408B7BAC
:100D30008CF827304B7B5BBB0B684FF0A04403F56E
:100D4000E07340F20C6E44F823E04B6803F5E07367
:100D500044F823E091E810400368C3F80845C3F85D
:100D60000CE58C68C3F824452AB10068097B40F380
:100D70000730FFF797FF3D4406EBC5050123002030
:100D800085F8223003B0BDE8F08F00BF280B0020AB
:100D90000B68DFF8A092DFF8A0E24FF0A04C03F55B
:100DA000E07340F20C6A4CF823A04B6803F5E07343
:100DB0004FF001084CF823A00B6808FA03F3CCF8B5
:100DC00008354B6808FA03F3CCF808350B6803F5CF
:100DD000E07340F20D6B4CF823B04B6803F5E07301
:100DE0004FF0040A4CF823B05346D9F8009000BFE6
:100DF00000BF00BF00BF00BF00BF00BF00BFF14584
:100E00002FD000BF00BF00BF00BF00BF00BF00BFAA
:100E100000BF00BF00BF00BF00BF00BF00BF00BFDA
:100E200000BF00BF00BF00BF00BF00BF00BF00BFCA
:100E300000BF00BF00BF00BF00BF00BF00BF00BFBA
:100E400000BF00BF00BF00BF00BF00BF00BF00BFAA
:100E500000BF00BF00BF00BF00BF00BF00BF00BF9A
:100E600000BF013BC3D10195D1F804B0DCF81035C7
:100E700023FA0BF3DB07554600F1D6800B6808FA1E
:100E800003F3CCF80C3500BF00BF00BF00BF00BFAC
:100E900000BF00BF00BFF1452FD000BF00BF00BFA3
:100EA00000BF00BF00BF00BF00BF00BF00BF00BF4A
:100EB00000BF00BF00BF00BF00BF00BF00BF00BF3A
:100EC00000BF00BF00BF00BF00BF00BF00BF00BF2A
:100ED00000BF00BF00BF00BF00BF00BF00BF00BF1A
:100EE00000BF00BF00BF00BF00BF00BF00BF00BF0A
:100EF00000BF00BF00BF00BF00BF013DC3D10B68F2
:100F000008FA03F3CCF80835534600BF00BF00BF12
:100F100000BF00BF00BF00BF00BFF1452FD000BF22
:100F200000BF00BF00BF00BF00BF00BF00BF00BFC9
:100F300000BF00BF00BF00BF00BF00BF00BF00BFB9
:100F400000BF00BF00BF00BF00BF00BF00BF00BFA9
:100F500000BF00BF00BF00BF00BF00BF00BF00BF99
:100F600000BF00BF00BF00BF00BF00BF00BF00BF89
:100F700000BF00BF00BF00BF00BF00BF00BF013BFC
:100F8000C3D10134092C7FF46FAF019D4B68DFF8AA
:100F9000A88001244FF0A04E04FA03F34FF0040C94
:100FA000CEF80C35634600BF00BF00BF00BF00BFD6
:100FB00000BF00BF00BFC1452FD000BF00BF00BFB2
:100FC00000BF00BF00BF00BF00BF00BF00BF00BF29
:100FD00000BF00BF00BF00BF00BF00BF00BF00BF19
:100FE00000BF00BF00BF00BF00BF00BF00BF00BF09
:100FF00000BF00BF00BF00BF00BF00BF00BF00BFF9
:1010000000BF00BF00BF00BF00BF00BF00BF00BFE8
:1010100000BF00BF00BF00BF00BF013BC3D14B6892
:101020009C40CEF8084587E6019D002C3FF484AE35
:101030005B46ACE7700400200024F4000379064A04
:10104000016803EB830302EBC3030220062283F84B
:101050002200C1F800257047280B00202DE9F04F31
:1010600089B005AC9DF848601546002E02F0604638
:101070004FF000020CBF17462027B6F1005F6260F8
:101080000592A26003D0102009B0BDE8F08F90F85F
:1010900004C0DFF8409106684FEA8C0A0AEB0C0E98
:1010A0004FF0FF3209EBCE0EC6F808239EF824203D
:1010B00002F0FF083AB1DEF80830C6F80433112018
:1010C00009B0BDE8F08F01228EF82420C6F88815FB
:1010D000C6F80481D6F804218DF815108DF8163065
:1010E0000695029294E80700029CC6F82481D6F87F
:1010F000244103940EF10C04DDF80CB08EF8258029
:10110000C6F8508584E80700C6F84085C6F84455FF
:10111000C6F84835CFB94FF4007240F20223C6F842
:1011200000224FF48271CEF808300AEB0C03012242
:10113000DB003262B26059F80300264CA8B12344A8
:1011400000209B68C6F804339EE7234B4FF480725F
:10115000C6F80022CEF80830C6F84881D6F84831E3
:101160000193019B4FF4A471DFE71046314402E084
:10117000D6F824211ABB0B68002BF9D0D444D6F83A
:10118000C404C6F8C40409EBCC09002389F8243050
:1011900000283FF479AF10F0010F14BF4FF4024361
:1011A000032348F2012210F0020F18BF134610F07B
:1011B000040F48F202220CBF1846104664E7C6F836
:1011C0002431D6F824310493049B30624FF48271A9
:1011D0007061CBE7280B00200002040070B55E4B65
:1011E000D3F824218AB0BAB10022C3F82421D3F85D
:1011F00024210592059AD3F804216AB9574A02219D
:101200009068C3F8080391609268C3F80423012230
:101210001A625A610AB070BD4F4B504CD3F804218A
:10122000002A30D0002504F10C0207CAC3F804518B
:10123000D3F80461049694F82350049E0AAE06E99C
:101240000700002D39D0227B012A7FD0D3F84C151E
:101250008DF81E10022A75D03F4BD3F84C25D2B220
:101260003D4B8DF81F200022C3F86021D3F8601198
:1012700002910299C3F85C21D3F85C310393039B7C
:1012800094F8255028E0C3F84821D3F84811227B70
:1012900001910199002A3BD104F10C0207CA94F88C
:1012A00025500AAE06E90700FDB94FF0FF32C3F83A
:1012B0000052A560C3F8082317E0C3F86051D3F8C3
:1012C00060210292029AC3F85C51D3F85C3194F821
:1012D00025500393039B45B91F4B00224FF0FF316C
:1012E000C3F80022A260C3F808131B4AD2F8C43422
:1012F000C2F8C4349A071ED501238DF818300DB9F1
:1013000084F824502368616806A898470AB070BD25
:101310004FF4007040F202214FF0FF32C3F8000298
:10132000A160C3F80823A268C3F8042301229A60CD
:101330001A620AB070BD13F0040318BF02238DF8BF
:101340001830DCE7D3F83C25D2B289E7D3F83C3536
:101350008DF81E3080E700BF00300040280B0020D1
:10136000F0B50479724E6401331987B0DD7E15B192
:10137000082007B0F0BD4D7F1D770D686B1C0BD0AA
:101380004FF0A0470123AB40C7F808350B6803F5C1
:10139000E073032547F823504B685F1C06D003F524
:1013A000E0734FF0A045002745F82370037906EB62
:1013B00043131B7F002B4DD003688D69C3F8245560
:1013C0004F7D0B7D05683B43C5F86C3503680F689E
:1013D0004D68C3F80C75C3F814550B7D012B00F054
:1013E0009B80331905465A600B6951483351EAB165
:1013F0002B79097F2A6800EB4310037F002B65D10E
:10140000C2F81C31D2F81C712A680097009FC2F8FC
:101410004431D2F844212B6846480192019AC3F81E
:101420000403286840F30730FFF73CFC2B792A6857
:1014300006EB43131B7F002B44D00823C2F8003572
:10144000344400200123E376E0752076A075A07671
:1014500007B0F0BD05688F69C5F8247591F815E0EF
:101460000D7D07684EEA0505C7F86C550568D1F88B
:1014700000E04F68C5F81475C5F80CE50D7D012D29
:10148000AFD18D686F1C05D005F5E0754FF0A04712
:1014900047F82530CB685D1C0DD001254FF0A047E3
:1014A00005FA03F3C7F80835CB6803F5E0730325A5
:1014B00047F82350CB6805688F68C5F80835C5F82C
:1014C00010758EE70423C2F80035B9E70023C2F88F
:1014D0001031D2F810712A680297029FC2F82031A9
:1014E000D2F820712A680397039FC2F82431D2F8FA
:1014F00024712A680497049FC2F84431D2F8442129
:101500002B6805920C48059AC3F80403286840F339
:101510000730FFF7C7FB89E78B685D1CBAD003F57E
:10152000E0734FF0A045002745F82370B2E700BFF5
:10153000500B00208000020010030200F0B5037978
:101540003D4A04685B01D118097F00296DD0002154
:10155000C4F80015D118384C4968B1B1017904EBD1
:101560004114217F002963D10168344CC1F808433C
:101570000168334E090B4CB26409203401F01F019D
:10158000012505FA01F146F824100179076802EBFC
:101590004111D7F80C65097FD7F814554FF0FF3E7D
:1015A000A9B3D7F80815D7F81045C7F80CE5C7F860
:1015B00014E50068C0F808E5C0F810E5771C06D00F
:1015C00006F5E0764FF0A040022740F826706E1C2A
:1015D00006D005F5E0754FF0A040022640F82560E2
:1015E000651C06D004F5E0744FF0A040022540F8D9
:1015F0002450481C06D001F5E0714FF0A0400224B1
:1016000040F8214013440022DA765A60F0BDD7F842
:101610000815D7F81045C7F814E5C7F80CE50068B9
:10162000C0F808E5C0F810E5C8E7C4F8001591E770
:101630000168044C9AE700BF500B002084020200AE
:1016400000E100E010030200F0B50379534C5B01A8
:10165000E51887B02D7F3DB101F06045B5F1005F21
:1016600002D0102007B0F0BD23444C4F9E7D16B130
:10167000112007B0F0BD9A7599609E8205796D01C1
:101680007A19137F13BB0168C1F81C31D1F81C61B2
:10169000016804960126049F8E600168D2F808E074
:1016A000C1F81C31D1F81C310593059B968A938AA9
:1016B0005768B6B201331EF806609BB29382C1F838
:1016C0001C65002F2FD0002007B0F0BD0368916883
:1016D000C3F82061D3F8207103680197019FC3F814
:1016E0005861D3F8586103680296967D029FC3F84B
:1016F0004415C3F848650368012199605368002BBD
:10170000E1D1036801E0002945D1D3F82021D3F8C5
:101710005811002AF7D0002914BF0F2000202C44B4
:101720000023A3759EE7967D938A9BB29E4202F1A9
:10173000140122D9016804E0938A9BB2B3F5807F3B
:1017400003D0D1F81C31002BF6D0938A9BB2B3F5AD
:10175000807FE9D0C1F81C71D1F81C310393039B41
:10176000B2F814C0938A1FFA8CFC01331EF80CC027
:101770009BB29382C1F81CC5D6E70B889BB2B3F528
:10178000807F08D00268D2F81C31002BFBD00123E7
:10179000D3600020C3E70F20C1E700BF500B00203B
:1017A0000279044B03EB4213987D003018BF0120EF
:1017B000704700BF500B002070B59B4C237F8EB04C
:1017C000002B75D1994AD2F80413890548D4974B58
:1017D000D3F80423520704D5D3F80821002A40F097
:1017E000CA80924BD3F81C21C2B1A28AA07D8E4937
:1017F00092B282424FF00002C3F81C2180F0A9800F
:10180000D3F81C210692069A888A8A8A8D6880B24B
:101810000132285C92B28A82C3F81C05834BD3F84C
:101820004421DAB10022C3F84421D3F84411A27E46
:1018300004910499002A40F08980E27D7A4B6AB1D4
:101840000022587ED968DA7501228DF830000B919C
:101850008DF828200AA893E8060090470EB070BDC6
:10186000D2F824110029B2D0C2F82431D2F82411C0
:10187000A37E07914FF401710798C2F808130BB9C2
:1018800001235360694A02238DF82830D2F880344E
:10189000C2F88034E07DE2680D9300238DF83000BB
:1018A000E375237621680B9263680AA8984798E746
:1018B0005E4BD3F82421002A40F09380D3F8101116
:1018C00061B1C3F81021D3F8101103910399D3F833
:1018D0003C15E07DC9B2884200F0AA80534BD3F892
:1018E0004421B2B10022C3F84421D3F84411E07D71
:1018F000019101994C4960B1D3F83C35C8688DF825
:1019000030300123CA750B908DF828300AA80AC917
:101910009847464BD3F82021002A9FD00022C3F8D5
:101920002021D3F82011A07D009100993E49002884
:1019300094D0D3F84C058B688DF830008A750B93E2
:101940008DF828200AC90AA8984787E701221A605B
:1019500073E7D3F81C310593059B00283FF45EAF75
:101960008B688DF830008A750B938DF828200AC992
:101970000AA8984752E7E17D2B4A002970D0002140
:10198000C3F80811D3F8081108910899D068517E5E
:10199000D3F818354354537ED17D0133DBB25376EF
:1019A000627E214B8A427FF41CAF1A7E002A6DD1E1
:1019B0009B7E13B91D4B01225A601C4AE068636884
:1019C0004FF40171C2F80813627E8DF830200025B3
:1019D00001220B902168E5758DF828200AA8984708
:1019E000FFE60022C3F82421D3F82411029102213A
:1019F0008DF828100299D3F88014C3F880140D9143
:101A0000D3F83C15E368E27522768DF830100B931D
:101A1000216863680AA89847044BD3F84421002A38
:101A20003FF477AF5EE700BF500B0020002000407E
:101A3000217EF1B1D3F80062E17526F02001E5685E
:101A4000C3F8001226698DF8300001238DF8283084
:101A5000227621680B95E66063680AA898473DE7FF
:101A6000C3F80811D3F808210992099AD3F8183558
:101A700096E7E268E17501238DF830008DF8283093
:101A80000B9294E80A000AA8984727E7DE685D7E73
:101A90001869DA7501210022D8601A765A768DF815
:101AA00028100B968DF8305093E806000AA890474E
:101AB00097E600BF00283ED01F4B204A1B6800BF9E
:101AC00000BF00BF00BF00BF00BF00BF00BF934208
:101AD0002FD000BF00BF00BF00BF00BF00BF00BFCE
:101AE00000BF00BF00BF00BF00BF00BF00BF00BFFE
:101AF00000BF00BF00BF00BF00BF00BF00BF00BFEE
:101B000000BF00BF00BF00BF00BF00BF00BF00BFDD
:101B100000BF00BF00BF00BF00BF00BF00BF00BFCD
:101B200000BF00BF00BF00BF00BF00BF00BF00BFBD
:101B300000BF0138C3D17047700400200024F400B6
:101B4000F8B501F0C1FA012001F0AAFD012001F071
:101B5000AFFD0021084601F099FD01240027134D37
:101B600004E0A82C1DD00134E4B20137FEB20A2FE4
:101B70003046F8D001F02CFDA6FB0501731A01EBED
:101B800053031B0903EB4303C3EBC303F31A002EF8
:101B9000E9D013F0FF0FE4D10A2001F019FDA82CC1
:101BA000E1D1BDE8F84001F02BBA00BF876118868B
:101BB000F0B5002483B001250DE000F06DFF002199
:101BC000431E22461BB20846009501F0FDFB01F0C2
:101BD00017FA043424B200F059FF8442EDDB0024EC
:101BE00001250DE000F052FF0021421E234612B2F3
:101BF0000846009501F0E8FB01F002FA043424B233
:101C000000F04AFF8442EDDB224D234B2A68234932
:101C100000BF00BF00BF00BF00BF00BF00BF00BFCC
:101C20008A422FD000BF00BF00BF00BF00BF00BF6F
:101C300000BF00BF00BF00BF00BF00BF00BF00BFAC
:101C400000BF00BF00BF00BF00BF00BF00BF00BF9C
:101C500000BF00BF00BF00BF00BF00BF00BF00BF8C
:101C600000BF00BF00BF00BF00BF00BF00BF00BF7C
:101C700000BF00BF00BF00BF00BF00BF00BF00BF6C
:101C800000BF00BF013BC3D101F01EFA00240126B2
:101C900014E000BF7004002090D003000024F40082
:101CA00000F0FAFE0023411E224609B218460096B3
:101CB00001F08AFB01F0A4F9043424B200F0E6FE3E
:101CC0008442EDDB00F0E8FE013804B2002CA8BF2E
:101CD000012713DB00F0E0FE064600F0D7FE2346A6
:101CE000421E711E043C09B212B20020009724B2B9
:101CF00001F06AFB01F084F9002CEBDA684B2A68EA
:101D0000684900BF00BF00BF00BF00BF00BF00BFE9
:101D100000BF8A422FD000BF00BF00BF00BF00BF7E
:101D200000BF00BF00BF00BF00BF00BF00BF00BFBB
:101D300000BF00BF00BF00BF00BF00BF00BF00BFAB
:101D400000BF00BF00BF00BF00BF00BF00BF00BF9B
:101D500000BF00BF00BF00BF00BF00BF00BF00BF8B
:101D600000BF00BF00BF00BF00BF00BF00BF00BF7B
:101D700000BF00BF00BF013BC3D101F0A5F900F0D7
:101D800085FE013804B2002CA8BF012713DB00F048
:101D90007DFE064600F080FE013E2246411E043CC8
:101DA00009B230B20023009724B201F00DFB01F01C
:101DB00027F9002CEBDA00F06FFE013804B2002C9A
:101DC000A8BF012713DB00F061FE064600F064FEA9
:101DD000013E2346411E043C09B230B20022009766
:101DE00024B201F0F1FA01F00BF9002CEBDA2C4BE4
:101DF0002A682C4900BF00BF00BF00BF00BF00BF62
:101E000000BF00BF8A422FD000BF00BF00BF00BF8D
:101E100000BF00BF00BF00BF00BF00BF00BF00BFCA
:101E200000BF00BF00BF00BF00BF00BF00BF00BFBA
:101E300000BF00BF00BF00BF00BF00BF00BF00BFAA
:101E400000BF00BF00BF00BF00BF00BF00BF00BF9A
:101E500000BF00BF00BF00BF00BF00BF00BF00BF8A
:101E600000BF00BF00BF00BF013BC3D101F02CF990
:101E7000002401260DE000F009FE0022013823466F
:101E800000B21146009601F09FFA01F0B9F804344F
:101E900024B200F001FE8442EDDB0024012715E0AE
:101EA00090D003000024F40000F0F0FD064600F09E
:101EB000F3FD013E431E22461BB230B200210097C3
:101EC00001F082FA01F09CF8043424B200F0DEFD47
:101ED0008442E9DB414C2A68414E234600BF00BFE3
:101EE00000BF00BF00BF00BF00BF00BFB2422FD085
:101EF00000BF00BF00BF00BF00BF00BF00BF00BFEA
:101F000000BF00BF00BF00BF00BF00BF00BF00BFD9
:101F100000BF00BF00BF00BF00BF00BF00BF00BFC9
:101F200000BF00BF00BF00BF00BF00BF00BF00BFB9
:101F300000BF00BF00BF00BF00BF00BF00BF00BFA9
:101F400000BF00BF00BF00BF00BF00BF00BF00BF99
:101F5000013BC3D101F054F82B6800BF00BF00BFA4
:101F600000BF00BF00BF00BF00BFB3422FD000BF03
:101F700000BF00BF00BF00BF00BF00BF00BF00BF69
:101F800000BF00BF00BF00BF00BF00BF00BF00BF59
:101F900000BF00BF00BF00BF00BF00BF00BF00BF49
:101FA00000BF00BF00BF00BF00BF00BF00BF00BF39
:101FB00000BF00BF00BF00BF00BF00BF00BF00BF29
:101FC00000BF00BF00BF00BF00BF00BF00BF013C9B
:101FD000C3D103B0BDE8F04001F076B890D0030063
:101FE0000024F4002DE9F04F564D8BB0884617467B
:101FF00002AE0DF12609002401F094FD824600F0A6
:1020000045FD9AFBF0F303FB10A07470307001F0F3
:1020100089FD85FB0032C317C3EB620303EB830327
:10202000C31A0133B37003364E45E5D10FFA88F871
:102030003FB24FF0000A4FF0010B02AC617814F888
:10204000030B414A8DE88008434601F05DFA4C4598
:10205000F4D100F0D5FF3D4A3D4B12683D4900BF29
:1020600000BF00BF00BF00BF00BF00BF00BF8A426B
:102070002FD000BF00BF00BF00BF00BF00BF00BF28
:1020800000BF00BF00BF00BF00BF00BF00BF00BF58
:1020900000BF00BF00BF00BF00BF00BF00BF00BF48
:1020A00000BF00BF00BF00BF00BF00BF00BF00BF38
:1020B00000BF00BF00BF00BF00BF00BF00BF00BF28
:1020C00000BF00BF00BF00BF00BF00BF00BF00BF18
:1020D00000BF013BC3D10DF1090602AD04E0033599
:1020E0004D4506F10306A8D06C7816F8010C164A87
:1020F000214643468DE8800401F006FAAB781C4483
:10210000E4B26C7000F0C8FC8442E8DD01F00AFD26
:10211000044600F0BBFC94FBF0F303FB10404FF0CF
:10212000000306F8010C6B7001F0FCFC054B83FB0F
:102130000032C317C3EB620303EB8303C01A013001
:10214000A870CCE767666666444C00007004002007
:10215000400D03000024F40010B5002084B0FEF709
:102160005BFC00285BD12F490320FEF771FCFEF7D2
:10217000BBFC0028FBD1039000F05EF803983C21E3
:102180000246022000F08EFC2748FFF793FC274808
:1021900001F0C0FC2448FFF78DFC00F031FF22481D
:1021A000FFF788FCFFF704FD00F08EFF0A210846C8
:1021B000012200F0ADFE00F023FF1D48FFF77AFC7E
:1021C00001231E222021402000F086FF00F018FF8E
:1021D0001748FFF76FFCFFF7B3FC1548FFF76AFCE1
:1021E00000F072FF00F00CFF1148FFF763FC1024B1
:1021F000FFF7DEFC00F068FF012321460D4A019342
:102200001E202346009401F07FF900F0F9FE0848F3
:10221000FFF750FC224621460648FFF7E3FEFEF793
:1022200001FDA0E7644C000040420F00844C000018
:1022300020A10700444C0000F0B585B000200390B9
:10224000034602461B271A264FF0CC750224694626
:1022500007480097019602958DF80C40FEF74AFD5D
:1022600008B1FEF7DFFC0248FEF7E8FE05B0F0BD5E
:10227000944C000010B4324B1B78022B54D0032B2B
:102280004BD0012B18D0012A1ED031D3022A10D1F5
:1022900000290B46B8BFCB1D43F3CF0300EBC3109F
:1022A000284C01F00701235C012202FA01F1594098
:1022B00021545DF8044B7047234B1B88013B5B1A8C
:1022C000012A014618B2E0D100290B46B8BFCB1D48
:1022D00043F3CF031B4C00EBC31001F00701235C59
:1022E000012202FA01F1194321545DF8044B7047B1
:1022F00000290B46B8BFCB1D43F3CF03114C00EBB5
:10230000C31001F00701235C012202FA01F123EA64
:10231000010121545DF8044B70470C4B1B88013BB5
:102320001B1A084619B2AEE7074C084B24881B88D5
:10233000013C013B201A591A00B209B2A3E700BFC1
:10234000820B00206C000020700B0020740B00201A
:1023500000282DE9F043C0F20F81CE4D0446B5F9B7
:1023600000501444AC42C4BF2A1A12B2002A40F3EF
:10237000888000290D46B8BFCD1D0124DFF818E381
:10238000ED1001F0070104FA01F100EBC510012B7B
:10239000C9B20EEB0004F44600F0F28073D3022BB6
:1023A0006FD1674295B207F00307AF4205F1FF36E0
:1023B000B6B228BF2F46042A33B200F35B812F4602
:1023C0001CF80020AB1E4A40012F0CF800201BB265
:1023D00004F1010217D06278EB1E4A40022F6270AE
:1023E0001BB204F102020ED0A2782B1F4A40042F28
:1023F000A2701BB204F1030205D1E2786B1F4A40C0
:10240000E2701BB2221DBD4200F03B81ED1BADB25C
:102410002C1FC4F38D04F61B0134B6B24FEA840CB2
:10242000022E1FFA8CFC1DD9002661F307063844E2
:1024300061F30F26864461F3174661F31F66AEF120
:102440000408002758F8040F01371FFA87F9704075
:102450004C454EF8040BF5D8CCEB030365451BB295
:1024600062440ED010784840107053B15078012B60
:1024700080EA0100507004D0937859409170BDE813
:10248000F083BDE8F083654297B205F00305BD42D5
:1024900007F1FF366FEA0101B6B228BF3D46042AB4
:1024A000C9B233B200F3E1803D461CF80020BB1EE8
:1024B0000A40012D0CF800201BB204F1010C18D0C9
:1024C0006278FB1E0A40022D62701BB204F1020CFE
:1024D0000FD0A2783B1F0A40042DA2701BB204F15A
:1024E000030C06D1E2787B1F0A40E27004F1040C71
:1024F0001BB2AF4200F0C7807A1B92B2141FC4F324
:102500008D04761B0134B6B2A700022EBFB21CD9CF
:10251000002661F30706054461F30F26AE4461F31C
:10252000174661F31F66AEF10408002558F8040F42
:1025300001351FFA85F930404C454EF8040BF5D8AB
:10254000DB1BBA421BB2BC449BD09CF800200A4063
:102550008CF80020002B94D09CF80120012B02EA7B
:1025600001028CF8012000F090809CF802301940A4
:102570008CF80210BDE8F083024412B20020ECE6B1
:10258000664295B206F00306AE4205F1FF37BFB2D0
:1025900028BF2E46042A3BB263DC2E461CF80020DE
:1025A000AB1E0A43012E0CF800201BB204F10102FD
:1025B00017D06278EB1E0A43022E62701BB204F140
:1025C00002020ED0A2782B1F0A43042EA2701BB267
:1025D00004F1030205D1E2786B1F0A43E2701BB2DB
:1025E000221DB5424BD0AD1BADB22C1FC4F38D04E0
:1025F000BF1B0134BFB24FEA840C022F1FFA8CFCC0
:102600001ED9002761F30707304461F30F27864482
:1026100061F3174761F31F67AEF10408002658F80D
:10262000040F01361FFA86F938434C454EF8040B67
:10263000F5D8CCEB030365451BB262443FF421AFF0
:10264000107808431070002B3FF41BAF5078012B1B
:1026500040EA010050701AD0937819439170BDE898
:10266000F0832246002EBED098E7002D7FF41DAFE8
:10267000A44641E72246002F3FF4C8AEA0E6BDE8DD
:10268000F083BDE8F083BDE8F083BDE8F083BDE8EA
:10269000F08300BF700B00206C0000200029F0B513
:1026A0005EDB474D0C46B5F900501444AC42C4BF44
:1026B0006A1A12B2002A1DDDC9B2CC08414D00EBE6
:1026C000C41011F00701D2B205EB000420D0C1F113
:1026D0000801C9B23C4E8A42765C0CD2C2EB010EB4
:1026E000FF2747FA0EF7012B06EA070641D044D32D
:1026F000022B05D0F0BD012B3BD03ED3022B04D1E1
:102700002F5C7E402E548A42F4D3521AD2B28034C7
:10271000072A18D9022B39D0A2F10806C6F3C4063D
:10272000B01C04EBC010012B0CBFFF25002504F1E9
:10273000800101F8805C80318142FAD1013604EBDE
:10274000C61402F00702002AD4D02049012B8A5C6B
:1027500018D009D3022BCDD123785A402270F0BD76
:102760000A4412B200219CE7237823EA0202227075
:10277000F0BD2F5C3E432E54C5E72F5C27EA0606CA
:102780002E54C0E723781A432270F0BDA2F1080549
:10279000C5F3C405A81C04EBC01004F1800313F8B2
:1027A000801CC94303F8801C80339842F7D101355F
:1027B00012F0070204EBC5149CD0044B9A5CCBE7E3
:1027C000740B00206C00002098510000A051000004
:1027D0002DE9F04F91B09DF86C4003942546BDF86B
:1027E00068400694062414FB0504002C049340F36F
:1027F000A18001EBC503002B40F39C809C4B1B7810
:10280000002B00F02D8102EB82030D9383B20E9317
:102810008BB20F9306230B93DFF86892DFF868B250
:10282000BDF80CA000230A931A46052A00F01D816A
:10283000904B13440D9A9B5C0093BDF828300E9882
:102840000F99029113FB0AF2024412B21446034498
:1028500008920A461BB2083203980C9393B22618CA
:10286000079388460191009BDB076FD5039B012BE3
:1028700000F0C480089CBDF90C300593B4420FFAF7
:1028800088F739DA7C4B1D7813E0032D20D0012D19
:1028900053D039462046002807DBB9F9003083427F
:1028A00003DD049B059AFFF7F9FE013424B2B4421C
:1028B00022DA022DE9D1B9F80000BBF80010013886
:1028C000CAEB0101001BC8EB010100B209B2E2E74B
:1028D000BBF800100139091B09B238460029E4DBB6
:1028E000BBF900308B42E0DD0134049B059A24B231
:1028F000FFF72EFDB442DCDB029B01339BB21A468C
:102900000293019B53449BB20193009B5B0800938D
:10291000079B1946D04491421FFA88F8A3D10A9A1E
:102920000B9B0132013B52B213F0FF030A920B934F
:102930007FF47BAF11B0BDE8F08FB9F80000CAEBAF
:102940000000C8EB000000B22146C7E7049B069ACE
:102950009342D1D0039B012B69D0089C019ABDF909
:102960000C300593B44217B2C6DA434BCDF824803D
:102970001D78904613E0032D39D0012D1ED0394625
:102980002046002807DBB9F90030834203DD069BAF
:10299000059AFFF783FE013424B2B44224DA022DF3
:1029A000E9D1B9F80000BBF800100138CAEB010109
:1029B000001BC8EB010100B209B2E2E7B9F8000060
:1029C000CAEB0000C8EB000000B221460029E2DBA0
:1029D000BBF900308B42DEDD0134069B059A24B240
:1029E000FFF7B6FCB442DADBDDF8248084E7BBF8FD
:1029F00000100139091B09B23846E7E70C98002896
:102A0000FFF67AAF1D4BB3F9003083427FF774AF06
:102A1000BDF908100029FFF66FAF194BB3F900306C
:102A20008B427FF769AF049AFFF724FC64E70C98A8
:102A30000028FFF661AF114BB3F9003083427FF7F6
:102A40005BAFBDF908100029FFF656AF0C4BB3F988
:102A500000308B427FF750AF069AFFF70BFC4BE735
:102A6000AF2A84BF0132D2B2CDE600230093E4E660
:102A7000940B00209C4C0000820B0020720B002065
:102A80007C0B0020700B0020740B0020014BB3F96D
:102A900000007047720B0020014BB3F90000704733
:102AA0007C0B0020B74BDFF804C32DE9F041B64E94
:102AB000B64CDFF8FC82DFF8FCE218700746002312
:102AC000B34833702370ACF80030B24EB24CA8F863
:102AD000003001238EF80030DFF8DCC20370DFF82D
:102AE000DCE2AE4D4FF6FF7030802080AC4EAD4C36
:102AF00029708020ACF80000AEF80000402084B0BF
:102B000030802080002A40F05B810024009403AADA
:102B1000AE260223A4488DF80C408DF80D60FEF718
:102B20009DFAD5262978A048009403AA02238DF89F
:102B30000C408DF80D60FEF791FA802629789A48AE
:102B4000009403AA02238DF80C408DF80D60FEF767
:102B500085FAA82629789448009403AA02238DF8C0
:102B60000C408DF80D60FEF779FA3F2629788E48E3
:102B7000009403AA02238DF80C408DF80D60FEF737
:102B80006DFAD32629788848009403AA02238DF889
:102B90000C408DF80D60FEF761FA402629788248D6
:102BA000009403AA02238DF80C408DF80D40FEF727
:102BB00055FA29788DF80D60009403AA02238D261A
:102BC00079488DF80C40FEF749FA29788DF80D60A8
:102BD0000094724E74488DF80C4003AA0223FEF74D
:102BE0003DFA012F3178704800940CBF102614264E
:102BF000022303AA8DF80C4000248DF80D60FEF727
:102C00002DFA4FF0200E297867480094022303AA7A
:102C10008DF80DE08DF80C40FEF720FA2978624817
:102C20000094022303AA8DF80C408DF80D40FEF7A6
:102C300015FA29785C4800944FF0A10E022303AAEC
:102C40008DF80DE08DF80C40FEF708FA297856480B
:102C500000944FF0C80E022303AA8DF80DE08DF802
:102C60000C40FEF7FBF929784F4800944FF0DA0E3C
:102C7000022303AA8DF80DE08DF80C40FEF7EEF963
:102C80002978494800944FF0120E022303AA8DF8C8
:102C90000DE0424E8DF80C40FEF7E0F929784248ED
:102CA00000944FF0810E022303AA8DF80C408DF89A
:102CB0000DE0FEF7D3F9012F3178009400F0088180
:102CC000CF27022303AA38488DF80D708DF80C40E9
:102CD000D927FEF7C3F9317833480094022303AAB9
:102CE0008DF80C408DF80D70FEF7B8F9317800942E
:102CF000F12603AA8DF80C40022300242A488DF8FF
:102D00000D60FEF7ABF9DB2629782748009403AA6B
:102D100002238DF80D608DF80C404026FEF79EF9D9
:102D200029782148009403AA02238DF80D608DF8BC
:102D30000C40A426FEF792F929781B48009403AAB8
:102D400002238DF80D608DF80C40A626FEF786F95B
:102D500029781548009403AA02238DF80C408DF8B9
:102D60000D60FEF77BF929780F48009403AAAF2580
:102D700002238DF80C408DF80D50FEF76FF904B06A
:102D8000BDE8F081760B0020940B0020820B002020
:102D9000950B0020840B00207A0B0020770B00207D
:102DA000740B00207C0B0020944C0000800B002052
:102DB0007E0B0020780B0020700B0020720B00208F
:102DC0004FF0A0404F4CC0F808354FF47A72246899
:102DD0004D4E00BF00BF00BF00BF00BF00BF00BF1F
:102DE00000BFB4422FD000BF00BF00BF00BF00BF74
:102DF00000BF00BF00BF00BF00BF00BF00BF00BFDB
:102E000000BF00BF00BF00BF00BF00BF00BF00BFCA
:102E100000BF00BF00BF00BF00BF00BF00BF00BFBA
:102E200000BF00BF00BF00BF00BF00BF00BF00BFAA
:102E300000BF00BF00BF00BF00BF00BF00BF00BF9A
:102E400000BF00BF00BF013AC3D142F21072C0F808
:102E50000C3500BF00BF00BF00BF00BF00BF00BFF8
:102E600000BFB4422FD000BF00BF00BF00BF00BFF3
:102E700000BF00BF00BF00BF00BF00BF00BF00BF5A
:102E800000BF00BF00BF00BF00BF00BF00BF00BF4A
:102E900000BF00BF00BF00BF00BF00BF00BF00BF3A
:102EA00000BF00BF00BF00BF00BF00BF00BF00BF2A
:102EB00000BF00BF00BF00BF00BF00BF00BF00BF1A
:102EC00000BF00BF00BF013AC3D1C0F808351CE6FF
:102ED0009F27022303AA0D488DF80D708DF80C4032
:102EE000D927FEF7BBF8317808480094022303AADB
:102EF0008DF80C408DF80D70FEF7B0F83178009425
:102F00002226F6E6700400200024F400944C000011
:102F1000002832DB344BB3F9003083422DDD002929
:102F20002BDB324BB3F900308B4226DD10B4304B33
:102F30001B78022B22D0032B2BD0012B05D12D4B3C
:102F40001B88013B5B1A014618B2012A3AD027D3ED
:102F5000022A10D100290B46B8BFCB1D43F3CF0383
:102F600000EBC310244C01F00701235C012202FA9C
:102F700001F1594021545DF8044B70471D4C1F4B23
:102F800024881B88013C013B201A591A00B209B25F
:102F9000DBE71A4B1B88013B1B1A084619B2D4E722
:102FA00000290B46B8BFCB1D43F3CF0300EBC31082
:102FB000114C01F00701225C01238B4022EA03033C
:102FC0002354D8E700290B46B8BFCB1D43F3CF03EA
:102FD00000EBC310084C01F00701225C01238B4079
:102FE00013432354C7E700BF720B00207C0B002063
:102FF000820B0020700B00206C000020740B00205E
:10300000F0B52D4E2D4D317885B0002403AA284609
:103010000094212702238DF80D708DF80C40FEF7E7
:103020001DF83178009403AA284602238DF80C403D
:103030008DF80D407F27FEF711F83178009403AA30
:10304000284602238DF80D708DF80C402227FEF7DC
:1030500005F83178009403AA284602238DF80D70F4
:103060008DF80C40FDF7FAFF3178009403AA28464A
:1030700002238DF80C408DF80D400727FDF7EEFF79
:103080003178009403AA284602238DF80C408DF86D
:103090000D70FDF7E3FF012331780093084A2846BD
:1030A000FDF7DCFF3178009423462846054AFDF7FA
:1030B000D5FF05B0F0BD00BF770B0020944C000099
:1030C0006C0400206C0000204FF480620021014855
:1030D000FDF738BA6C0000202DE9F04F89B01FFAD7
:1030E00082F90392C9EBC93252000C4615B2C9F1FC
:1030F000010106950FFA81FB051EA1B2049302910E
:1031000020DB1E46AE4BB3F90030AB421ADD49441A
:1031100009B2002907DBAB4BB3F900308B4202DD6B
:103120003246FFF7A7F8029BC9EB030109B2002959
:1031300008DBA44BB3F900308B4203DD049A284628
:10314000FFF798F8ABB209EB030000B20028019337
:103150000FDB9B4BB3F9003083420ADD002C08DB08
:10316000984BB3F90030A34203DD049A2146FFF7E0
:1031700081F8019BC9EB030000B200280FDB904BE4
:10318000B3F9003083420ADD002C08DB8D4BB3F924
:103190000030A34203DD2146049AFFF76BF8039B3E
:1031A000002B40F30A8101278FE0002D09DB854BBE
:1031B000B3F90030AB4204DD2946049A2046FFF7FC
:1031C00059F8029B002EC9EB03052DB211DB5645C1
:1031D0000DDA002D09DB7B4BB3F90030AB4204DD87
:1031E0003046049A2946FFF745F8002C0DDBA2452E
:1031F0000BDD002D09DB734BB3F90030AB4204DD6E
:1032000029462046049AFFF735F8029BDC19019BFA
:1032100003EB09052DB2A4B2002D23B2C0F2BB808E
:10322000674ADFF89CA1B2F90020AA420DDD002B0D
:103230000BDB644AB2F900209A4206DD1946049A73
:1032400007932846FFF716F8079B019AC9EB020679
:1032500036B2002EC0F29580BAF900A0B2457FDDEB
:10326000002B09DB574AB2F900209A4204DD1946C7
:10327000049A3046FEF7FEFFC8EB0404002D24B28A
:1032800011DB55450DDA002C09DB4E4BB3F900304C
:10329000A34204DD2846049A2146FEF7EBFF002EE8
:1032A0000DDBB2450BDD002C09DB464BB3F90030DA
:1032B000A34204DD21463046049AFEF7DBFF039B60
:1032C000059A01379342BFB277DDBBF1000F0DDBEA
:1032D000069B039A02339BB2013A9B4412B21BB283
:1032E00003920FFA8BFB06931FFA82F9019B4FEAB8
:1032F00047081FFA88F8DC1908F101039B44A4B2BF
:10330000029B26B203EB0905002E3BB20FFA8BFBA2
:103310002DB2059348DB2A4BDFF8A4A0B3F90030A7
:10332000B3420BDD002D09DB264BB3F90030AB4275
:1033300004DD049A29463046FEF79CFFC8EB0404DE
:1033400024B2002C12DBBAF900A0A2453FF72DAF42
:10335000029B002EC9EB03052DB2FFF656AF36E7F0
:10336000C8EB0404002D24B2A9DB8AE7144BB3F99F
:1033700000A0029B5645C9EB03052DB2FFF629AF0D
:1033800043E70F4BB3F900A0C8EB0404554524B242
:10339000FFF679AF93E7019AC9EB020636B2002E29
:1033A0008DDBDFF81CA057E7C8EB040424B2002C27
:1033B000FFF62BAFDFF808A0C5E709B0BDE8F08F36
:1033C000720B00207C0B00202DE9F04FC1EB0309AC
:1033D00083B005464846541B17460E469846BDF82E
:1033E00030A000F005FB8346204600F001FB83453A
:1033F00002467DDC4C4643463146BD4206DD34463E
:10340000284646463D46A0460746CC1AC5EB070966
:103410001FFA89F920460FFA89F4019204EBD4745B
:1034200000F0E6FAB0454FEA6404019A5BDD01233F
:10343000934552461FFA80F8CA46DFF8C8B099464D
:10344000944631DC06E04E4402EB0A04AF4236B249
:1034500024B21FDB002D13DBBBF90020AA420FDDD5
:10346000002E3146284662460ADB254BB3F900E0C0
:10347000B64505DDCDF804C0FEF7FCFEDDF804C05E
:10348000C8EB0404A2B214B20135002C2DB2DADB71
:10349000AF42DFDA03B0BDE8F08F4E4402EB0A041E
:1034A00036B224B2AF42F5DB002E13DBBBF90020AD
:1034B000B2420FDD002D2946304662460ADB104B32
:1034C000B3F900E0AE4505DDCDF804C0FEF7D2FE4D
:1034D000DDF804C0C8EB0404A2B214B20135002C1C
:1034E0002DB2DFDAD9E7AF42D4DB4FF6FF739FE7A7
:1034F0003B4629464746354698460E467DE700BF7F
:103500007C0B0020720B00202DE9F04F89B0BDF834
:103510004C50BDF948400595DD1D48BF03F10E052F
:10352000ED10002C03954CDD0792621E5F1E92B2D7
:103530000493BFB24FF0000A0132234B0691834639
:1035400002920137D146049A002A33DD069A02EB33
:1035500009080FFA88F8B8F1000F2BDB079A00244E
:1035600002EB0A06802501E0A74223D022B2002AFE
:10357000B8BF0732D210A0B200F00701B25C45FA22
:1035800001F10A4204F10104EED0584400B20028CF
:10359000EADBB3F900208242E6DD0C4AB2F90020F2
:1035A00042454146059ADFDD0193FEF763FEA742DF
:1035B000019BDBD1039A9244029A09F101099145DA
:1035C000C1D109B0BDE8F08F720B00207C0B002048
:1035D0000A283ED00D2846D02DE9F043234B244F36
:1035E000B3F90060B7F90040DFF89C90214BB9F9BE
:1035F00000801D78B44283B01ADBABB21E4A03EBE5
:10360000430104EB41041278194924B23C805AB1B9
:10361000A5EB850506EB4505AC4205DD08EBC308C7
:103620000023A9F800800B80012003B0BDE8F083DF
:10363000124BB3F900304345DFDD1149114B0988C6
:103640001B8802468DE8220020464146FFF7C0F85D
:10365000D3E70D4A074913880878054903EBC003EF
:103660000020138008800120704700BF720B0020EB
:103670007E0B0020780B0020950B00207C0B002097
:10368000840B00207A0B0020800B0020024A034BA1
:1036900010801980704700BF7E0B0020800B002037
:1036A000024B002808BF012018707047780B0020DB
:1036B000024A034B10801880704700BF840B002023
:1036C0007A0B00200649074A074B9B1A03DD043B8F
:1036D000C858D050FBDC00F013F8FCF7BFFE000028
:1036E0005453000000000020EC050020FEE7FEE738
:1036F000FEE7FEE7FEE7FEE7FEE7FEE7FEE7FEE7A2
:10370000F0B4A64B1B78062B1BD0A54AD2F8883004
:1037100043F47003C2F88830BFF34F8FBFF36F8F4D
:103720004FF01023D3F80022002AC0F20581D3F80D
:103730000432002BC0F200819A4B9B4A1A60F0BC05
:1037400070479A4B1B681E07DFD1994B1B6803F02B
:10375000F003302B02D1974B974A1A60944B1B68A9
:1037600003F0F002302A00F0D68003F0E003402B93
:1037700000F0D1808E4B1B6803F0F003302B00F07B
:10378000BB808B4B1B6803F0F002302A00F0A08056
:1037900003F0E003402B00F09B80854B1B6803F097
:1037A000F003302B00F08680814B1B6803F0F003A0
:1037B000302B68D07E4B1B6803F0F003502B10D0E9
:1037C0007B4B1B6803F0F002302A03D003F0E003C8
:1037D000402B9AD1794B7A4A1B6803F04F03136050
:1037E00093E74FF08052774BD2F80414C3F82015BA
:1037F000D2F80814C3F82415D2F80C14C3F828150D
:10380000D2F81014C3F82C15D2F81414C3F83015DC
:10381000D2F81814C3F83415D2F81C14C3F84015A4
:10382000D2F82014C3F84415D2F82414C3F848156C
:10383000D2F82814C3F84C15D2F82C14C3F850153C
:10384000D2F83014C3F85415D2F83414C3F8601504
:10385000D2F83814C3F86415D2F83C14C3F86815CC
:10386000D2F84014C3F86C15D2F844244B49C3F87D
:1038700070250A78062A7FF448AF4C4B1B681B075B
:103880007FF443AF9CE7454B4F491B784F4D504861
:10389000504A05270F60012600243F21062B2E6089
:1038A000046011607FF431AF404B1B681A077FF44E
:1038B0002CAF7FE7394B484A1B780321062B116058
:1038C0007FF423AF394B1B6819077FF41EAF6BE7FA
:1038D000324B1B784FF080420021062BC2F80C11AE
:1038E000C2F81011C2F838157FF40FAF2F4B1B68C8
:1038F00018077FF40AAF50E73849284ACB68127896
:1039000023F08073062ACB60B4D1284B1B681C07B8
:103910007FF4FBAE35E7324A204B12681B78314901
:10392000C2F34232062B0A607FF4EFAE1F4B1B68D6
:103930001D077FF4EAAE1DE72B4B0122C3F80425D7
:10394000D3F80024002AFBD04FF01023152226497B
:10395000C3F80022D1F80034002BFBD04FF0102325
:1039600015222149C3F80422D1F800241E4B002A55
:10397000FAD00022C3F80425D3F80024002AFBD093
:10398000BFF34F8F0649194BCA6802F4E062134334
:10399000CB60BFF34F8F00BFFDE700BFE00F00F02B
:1039A00000ED00E0700400200090D003E40F00F070
:1039B000E80F00F074C007400DF0ADBA58020010D7
:1039C000E40E004000C00040105600408856004001
:1039D0001856004014560040A0050040F0ED00E0ED
:1039E000440200103C05004000E001400400FA05DC
:1039F0000028B8BF40427047034B1B68186A034B4E
:103A0000002808BF1846704760000020740400209A
:103A100008B5034B1868FFF7EFFFD0F8EC0008BDBE
:103A20006000002082B001B901A93AB143B1137816
:103A30000B601278101C18BF012003E0104601E053
:103A40006FF0010002B0704710B5431E0A44914266
:103A500004D011F8014B03F8014FF8E710BD000046
:103A600070B50E46054618B183690BB900F090FA9F
:103A7000AB69AC6813B9284600F08AFA224B9C4225
:103A800001D16C6808E0214B9C4201D1AC6803E095
:103A90001F4B9C4208BFEC68A3891B0701D5236913
:103AA0003BB92146284600F013F910B14FF0FF3022
:103AB00070BD013EA36816F8011F013BA36091B1E0
:103AC000002B04DAA269934206DB0A2904D023689A
:103AD0005A1C22601970EDE72246284600F096F83D
:103AE0000130E7D1E2E7002B08DA22460A21284616
:103AF00000F08CF80130D9D00A2070BD23680A206C
:103B00005A1C2260187070BDB4520000D4520000DC
:103B1000F4520000024B01461868FFF7A1BF00BF36
:103B200060000020194B10B51C68A36BD3B9182096
:103B300000F018FB43F20E33A06303804AF6CD3346
:103B4000438041F2342383804EF26D63C3804DF68F
:103B5000EC630381052343810B238381012200232E
:103B6000C0E90423A16B0A4C0B694869094A5C430C
:103B700002FB0040A3FB02230132034443F1000394
:103B8000C1E9042323F0004010BD00BF6000002005
:103B90002DF451582D7F954C0CB430B5164B0C1E9E
:103BA0009DB01D6804DA8B232B604FF0FF301EE0C0
:103BB0004FF40273ADF8143014BF04F1FF33234601
:103BC000049307934FF6FF7302900690ADF81630FA
:103BD000209A21AB02A92846019300F0D1FB431C97
:103BE000BCBF8B232B6014B1029B00221A701DB046
:103BF000BDE8304002B0704760000020034613F873
:103C0000012B002AFBD1181A01387047F8B50F466E
:103C10001446054618B183690BB900F0B9F9224B77
:103C20009C4201D16C6808E0204B9C4201D1AC68F9
:103C300003E01F4B9C4208BFEC68A369A360A38903
:103C40001A0709D523693BB123682069181A6369EB
:103C50009842FEB20FDB08E02146284600F038F813
:103C60000028F1D04FF0FF361BE02146284600F037
:103C700025F90028F6D1A368013BA36023685A1CEC
:103C800022601F7063690130984204D0A389DB076A
:103C900007D50A2E05D12146284600F00FF9002845
:103CA000E0D13046F8BD00BFB4520000D45200004D
:103CB000F452000049B1FF2A85BF8A2303600A70CD
:103CC0004FF0FF3098BF0120704708467047000052
:103CD000324B70B51D6806460C4625B1AB6913B969
:103CE000284600F055F92E4B9C4201D16C6808E043
:103CF0002C4B9C4201D1AC6803E02B4B9C4208BF8B
:103D0000EC68B4F90C309AB215071DD4D00602D471
:103D1000092232603AE0510712D5616B41B104F1DA
:103D20004403994202D0304600F024FA0023636332
:103D3000A38923F02403A381002363602369236004
:103D4000A38943F00803A38123694BB9A38903F432
:103D50002073B3F5007F03D02146304600F0C6F94A
:103D6000A28912F0010305D00023A36063695B42BE
:103D7000A36103E0920758BF6369A36023695BB93D
:103D8000B4F90C3003F0800080B230B143F040034E
:103D9000A3814FF0FF3070BD002070BD6000002097
:103DA000B4520000D4520000F45200008A892DE978
:103DB000F041054610070C4659D44B68002B02DC35
:103DC0000B6C002B17DDE66AAEB102F480520023C3
:103DD00092B22F682B600AB1606D15E0216A012351
:103DE0002846B047411C0FD12B686BB11D2B01D069
:103DF000162B03D12F600020BDE8F081A38943F08A
:103E00004003A381BDE8F081A3895A0705D5636803
:103E1000C01A636B0BB1236CC01A00230246E66A1A
:103E2000216A2846B047431CA38906D129681D2969
:103E30003AD8214ACA40D60736D500226260D90452
:103E40002269226004D5421C01D12B6803B9606548
:103E5000616B2F600029CED004F14403994202D057
:103E6000284600F087F900206063BDE8F0810F6903
:103E7000002FC0D093070E6808BF4B690F6018BFB2
:103E80000023C7EB06088B6002E00744C0EB08087C
:103E9000B8F1000FAFDD43463A46216AA66A2846CC
:103EA000B0470028F1DCA38943F04003A3814FF021
:103EB000FF30BDE8F08100BF0100402038B50B693C
:103EC00005460C46DBB118B183690BB900F060F808
:103ED0000C4B9C4201D16C6808E00B4B9C4201D119
:103EE000AC6803E0094B9C4208BFEC68B4F90C30A5
:103EF0002BB121462846BDE83840FFF757BF0020C8
:103F000038BD00BFB4520000D4520000F45200008B
:103F1000014900F0A9B800BFBD3E0000002310B564
:103F2000044603604360836081814366C28103610C
:103F300043618361194608225C30FCF703FB054BA3
:103F40006362054BA362054BE362054B2462236366
:103F500010BD00BFC1480000E34800001B4900003D
:103F60003F49000070B568234D1E5D430E4605F1C4
:103F7000740100F04DF9044640B1002180E8420090
:103F80000C30A06005F16802FCF7DCFA204670BD39
:103F9000836910B5044633BB8364C3640365124B65
:103FA000124A1B688262984204BF0123836100F0B9
:103FB0001FF86060204600F01BF8A060204600F06B
:103FC00017F80022E06004216068FFF7A7FF0122D4
:103FD0000921A068FFF7A2FF02221221E068FFF783
:103FE0009DFF0123A36110BDF44B0000113F0000B1
:103FF000F8B51C4B1E68B369074613B93046FFF786
:10400000C7FF4836B4687368013B04D4B4F90C5058
:104010007DB16834F8E733680BB13668F2E7042104
:104020003846FFF79FFF30600028F6D10C233B6035
:10403000F8BD4FF6FF73E3810123A3816566256018
:10404000A560656025616561A5610822294604F1C6
:104050005C00FCF777FA6563A563A564E564204618
:10406000F8BD00BFF44B00002DE9F84380468946B7
:1040700000F14804002694B1A5686768013F0CD49C
:10408000AB89012B07D9B5F90E30013303D029468E
:104090004046C84706436835F0E72468EBE73046FA
:1040A000BDE8F88370B50E46B1F90E10002990B046
:1040B00014461D4606DA00232B60B3891A060ED576
:1040C00040230EE001AA00F061FC0028F3DB029A15
:1040D00002F47042A2F500535A425A412A604FF44A
:1040E00080630020236010B070BD00008B8973B521
:1040F0009E0705460C4610D401AB6A46FFF7D2FF77
:1041000000990646284600F083F868B9B4F90C30E7
:104110009A0522D443F00203A38104F147032360EC
:1041200023610123636118E00D4BAB62A38920601A
:1041300043F08003A381009B6361019B20614BB12D
:10414000B4F90E10284600F033FC18B1A38943F0EF
:104150000103A381A0893043A08102B070BD00BFDC
:10416000113F0000024B0146186800F051B800BF33
:104170006000002038B50546002946D051F8043CBF
:104180000C1F002BB8BFE41800F0A5FC1F4A1368F1
:10419000114613B96360146032E0A3420ED922685D
:1041A000A018834204BF18685B68636004BF1218DC
:1041B00022600C6024E0A24203D813465A68002A09
:1041C000F9D118681918A1420BD121680144581877
:1041D0008242196014D1106852685A600144196013
:1041E0000EE002D90C232B600AE02168601882429D
:1041F00004BF10685268626004BF091821605C60E7
:104200002846BDE8384000F067BC38BD8C0B002064
:1042100070B5CD1C25F0030508350C2D38BF0C25D5
:10422000002D064601DBA94202D90C23336046E08B
:1042300000F051FC234B1C681A462146A1B10B68C3
:104240005B1B0ED40B2B03D90B60CC18CD501EE09A
:104250008C420DBF63684B686360136018BF0C46E7
:1042600015E00C464968E9E7174C23681BB930464E
:1042700000F016FB20602946304600F011FB431C7D
:1042800018D0C41C24F00304A0420DD12560304690
:1042900000F022FC04F10B00231D20F00700C31ADC
:1042A0000ED05A42E25070BD211A304600F0F8FAA2
:1042B0000130EBD10C233360304600F00DFC0020C0
:1042C00070BD00BF8C0B0020880B00202DE9F0474B
:1042D0008E689E4282460C46914698463ED88A8910
:1042E00012F4906F3AD0256809696F1A6569022344
:1042F00005EB450595FBF3F57B1C43449D4238BF18
:104300001D4653050FD52946FFF782FF064698B193
:104310003A462169FFF798FBA38923F4906343F0A1
:104320008003A38113E02A4600F0D7FB064670B94C
:1043300021695046FFF71EFF0C23CAF80030A389FD
:1043400043F04003A3814FF0FF30BDE8F0872661C2
:1043500065613E44ED1B2660A5604646464528BF84
:10436000464632464946206800F09AFBA3689B1BEC
:10437000A36023681E4426600020BDE8F08700008B
:104380002DE9F04F9DB0804603938B891C060D46A6
:1043900016460DD50B695BB94021FFF739FF286040
:1043A000286118B90C23C8F80030CDE040236B61B8
:1043B0000023099320238DF82930DFF89CB13023A6
:1043C0008DF82A3037463C4614F8013B1BB9B7EB51
:1043D000060910D003E0252BF9D02746F3E74B461A
:1043E000324629464046FFF771FF013000F0A780B2
:1043F000099B4B4409933B78002B00F0A0800023DD
:104400004FF0FF3204930793059206938DF85330D3
:104410001A930126052221784E4800F0F1FA671C14
:10442000049B38B14B4A801A06FA00F018430490F6
:104430003C46EFE7D90644BF20228DF853201A07E7
:1044400044BF2B228DF8532022782A2A03D0079AC2
:1044500000210A200BE0039A111D12680391002A23
:1044600010DA524243F00200079204900BE0274614
:1044700001343B78303B092B03D800FB0232012189
:10448000F5E701B107923B782E2B1ED17B782A2BC2
:104490000AD1039B1A1D1B680392002BB8BF4FF073
:1044A000FF330237059310E000230593781C19466B
:1044B0000A24074601303A78303A092A03D804FB27
:1044C00001210123F5E703B1059103223978224840
:1044D00000F096FA40B14023CBEB000003FA00F065
:1044E000049B18430490013739781C488DF8281034
:1044F00006227E1C00F084FA88B1194B33B9039B65
:10450000073323F007030833039314E003AB00934E
:104510002A46144B04A94046AFF3008007E003ABE2
:1045200000932A460F4B04A9404600F093F8B0F1DF
:10453000FF3F824603D0099B5344099342E7AB896E
:104540005B0601D4099801E04FF0FF301DB0BDE8D3
:10455000F08F00BF145300001A5300001E530000D8
:1045600000000000CD4200002DE9F04791461F46B3
:104570000A698B68DDF820809342B8BF1346C9F8FA
:10458000003091F8432006460C4612B10133C9F8B9
:1045900000302368990642BFD9F800300233C9F8C9
:1045A0000030256815F0060510D104F1190A07E05E
:1045B0000123524639463046C04701301AD00135F2
:1045C000E368D9F800209B1A9D42F1DB94F8433050
:1045D0002268003318BF012392060FD5E1185A1C38
:1045E000302081F84300224494F8451082F84310AB
:1045F000023303E04FF0FF30BDE8F08704F14302DF
:1046000039463046C0470130F4D02268D9F800500E
:10461000E36802F00602042A08BF5D1B2269A36852
:104620000CBF25EAE57500259342C4BF9B1AED181F
:104630004FF000091A344D4509D00123224639466E
:104640003046C0470130D5D009F10109F3E7002019
:10465000BDE8F0872DE9F04317460A7E85B06E2A43
:10466000984606460C460C9B01F1430E00F0AE80C6
:1046700011D8632A22D009D8002A00F0BB80582A1A
:1046800040F0CA8081F84520834955E0642A1ED055
:10469000692A1CD0C0E0732A00F0B08009D86F2AC4
:1046A0002ED0702A40F0B8800A6842F020020A60DA
:1046B0003EE0752A24D0782A3AD0ADE01A6801F19C
:1046C0004205111D1960136884F84230A8E0216882
:1046D0001A6811F0800F02D0111D196008E011F066
:1046E000400F02F10401196002D0B2F9003000E07D
:1046F0001368002B3CDA2D225B4284F8432037E01C
:1047000021681A6811F0800F02D0111D196007E0AE
:1047100011F0400F02F10401196001D0138800E08C
:104720001368227E5C496F2A14BF0A2208221BE00C
:1047300078225A4984F845202268186812F0800FC0
:1047400000F104051D6003D1550601D5038800E082
:104750000368D00744BF42F0200222601BB92268E0
:1047600022F0200222601022002084F8430001E0A1
:1047700049490A226568A560002D08DB206820F001
:10478000040020602BB9002D7DD175460CE0002B74
:1047900079D07546B3FBF2F002FB1033CB5C05F821
:1047A000013D03460028F5D1082A0BD12368DA071A
:1047B00008D5236962689A42DEBF302305F8013CC0
:1047C00005F1FF35C5EB0E0323612EE008681A687A
:1047D000496910F0800F03D0101D1860136808E0BD
:1047E00010F0400F02F104001860136801D0198026
:1047F00000E0196000232361754616E01A68111D58
:104800001960156862680021284600F0F9F808B1BF
:10481000401B6060636804E004F1420584F84220B4
:1048200001232361002384F84330CDF800803B4608
:1048300003AA21463046FFF797FE013002D14FF020
:10484000FF3026E023692A4639463046C04701300A
:10485000F5D023689B0710D5002504F1190907E05E
:1048600001234A4639463046C0470130E7D001357A
:10487000E368039A9B1A9D42F2DBE068039B98422F
:10488000B8BF184605E00B7884F8423004F14205C1
:104890008AE705B0BDE8F0832553000036530000D9
:1048A00038B5064C002305460846236000F080F921
:1048B000431C02D1236803B12B6038BD980B002044
:1048C00010B50C46B1F90E1000F02EF90028ABBF60
:1048D000636DA3891B1823F48053ACBF6365A38168
:1048E00010BD2DE9F0411F468B89DB0505460C46BE
:1048F000164605D502230022B1F90E1000F068F823
:10490000A389B4F90E1023F48053A38132463B46A9
:104910002846BDE8F04100F017B810B50C46B1F9D3
:104920000E1000F055F8431CA38915BF606523F4F1
:10493000805343F48053A38118BFA38110BDB1F904
:104940000E1000F013B8000038B5074C05460846B5
:104950001146002222601A4600F038F9431C02D1A9
:10496000236803B12B6038BD980B002038B5064C86
:10497000002305460846236000F0F2F8431C02D1EC
:10498000236803B12B6038BD980B002038B5074C65
:104990000023054608461146236000F0E9F8431C51
:1049A00002D1236803B12B6038BD00BF980B0020F3
:1049B00038B5064C002305460846236000F0E0F8B1
:1049C000431C02D1236803B12B6038BD980B002033
:1049D00038B5074C054608461146002222601A46A3
:1049E00000F0D6F8431C02D1236803B12B6038BD18
:1049F000980B0020000000000000000000000000F4
:104A000001F0FF01102A2BDB10F0070F08D010F87F
:104A1000013B013A8B422DD010F0070F42B3F6D183
:104A2000F0B441EA012141EA014122F007047FF09C
:104A300000070023F0E80256083C85EA010586EAF3
:104A4000010685FA47F5A3FA87F586FA47F6A5FA2F
:104A500087F68EB9EED1F0BC01F0FF0102F007023B
:104A600032B110F8013B013A83EA010313B1F8D1E6
:104A70000020704701387047002D06BF35460338C7
:104A8000073815F0010F07D1013015F4807F02BF00
:104A9000013015F4C03F0130F0BC0138704700BF51
:104AA000884210B501EB020301D8421E0BE0984288
:104AB000FBD28118D21AD34204D013F8014D01F869
:104AC000014DF8E710BD994204D011F8014B02F8EE
:104AD000014FF8E710BD70477047F8B50746154617
:104AE0000E4621B91146BDE8F840FFF791BB1AB94F
:104AF000FFF740FB2846F8BD00F028F885420ED9A4
:104B000029463846FFF784FB044650B131462A4611
:104B1000FEF79AFF31463846FFF72CFB01E030469E
:104B2000F8BD2046F8BD000038B5074C05460846DC
:104B30001146002222601A4600F032F8431C02D1CE
:104B4000236803B12B6038BD980B002051F8040C8A
:104B50000028BEBF091851F8043CC018043870473B
:104B6000024B58221A604FF0FF307047980B00201C
:104B7000024B58221A604FF0FF307047980B00200C
:104B8000024B58221A600020704700BF980B00208B
:104B9000024B58221A604FF0FF307047980B0020EC
:104BA000024B58221A604FF0FF307047980B0020DC
:104BB000044A05491368002B08BF0B4618441060CF
:104BC00018467047900B0020A00B0020024B582283
:104BD0001A604FF0FF307047980B0020F8B500BF07
:104BE000F8BC08BC9E467047F8B500BFF8BC08BCCE
:104BF0009E46704700000020FFFFFFFFFFFFFFFF02
:104C0000FFFFFFFFFFFFFFFF0000000000000000AC
:104C10000000D601070100005B253038645D00000C
:104C20004F766572666C6F770D0A00004150505FD9
:104C30004552524F523A4552524F523A4661746170
:104C40006C0D0A0000C001C001C003E0F3E0FEF8F3
:104C50007EFF339F1FFC0D701BA03FE03FF07CF0F8
:104C6000707000304150503A494E464F3A0D0A5448
:104C700057492073656E736F72206578616D706C33
:104C8000650D0A002D2D2D205354415254202D2DF9
:104C90002D00000000300040000100000000000076
:104CA000003E5B4F5B3E3E6B4F6B3E1C3E7C3E1CB2
:104CB000183C7E3C181C577D571C1C5E7F5E1C00F8
:104CC000183C1800FFE7C3E7FF0018241800FFE7AF
:104CD000DBE7FF30483A060E2629792926407F0572
:104CE0000507407F05253F5A3CE73C5A7F3E1C1C88
:104CF00008081C1C3E7F14227F22145F5F005F5F48
:104D000006097F017F006689956A60606060609433
:104D1000A2FFA29408047E040810207E2010080838
:104D20002A1C08081C2A08081E101010100C1E0C43
:104D30001E0C30383E3830060E3E0E0600000000D5
:104D40000000005F00000007000700147F147F14BC
:104D5000242A7F2A12231308646236495620500001
:104D600008070300001C2241000041221C002A1CED
:104D70007F1C2A08083E08080080703000080808D8
:104D80000808000060600020100804023E514945F8
:104D90003E00427F400072494949462141494D3316
:104DA0001814127F1027454545393C4A494931417D
:104DB000211109073649494936464949291E00004B
:104DC00014000000403400000008142241141414A0
:104DD0001414004122140802015909063E415D598C
:104DE0004E7C1211127C7F494949363E4141412295
:104DF0007F4141413E7F494949417F090909013EBF
:104E0000414151737F0808087F00417F41002040E5
:104E1000413F017F081422417F404040407F021CF7
:104E2000027F7F0408107F3E4141413E7F0909090E
:104E3000063E4151215E7F091929462649494932DA
:104E400003017F01033F4040403F1F2040201F3FA0
:104E50004038403F63140814630304780403615925
:104E6000494D43007F414141020408102000414167
:104E7000417F040201020440404040400003070813
:104E80000020545478407F2844443838444444280F
:104E9000384444287F385454541800087E090218B6
:104EA000A4A49C787F0804047800447D400020403E
:104EB000403D007F1028440000417F40007C047882
:104EC00004787C080404783844444438FC182424CA
:104ED0001818242418FC7C0804040848545454244A
:104EE00004043F44243C4040207C1C2040201C3CC7
:104EF0004030403C44281028444C9090907C4464BE
:104F0000544C440008364100000077000000413650
:104F1000080002010204023C2623263C1EA1A161D6
:104F2000123A4040207A3854545559215555794108
:104F30002254547842215554784020545579400CDD
:104F40001E527212395555555939545454593955C0
:104F50005454580000457C410002457D4200014503
:104F60007C407D1211127DF0282528F07C54554597
:104F7000002054547C547C0A097F49324949493203
:104F80003A4444443A324A4848303A4141217A3A14
:104F900042402078009DA0A07D3D4242423D3D40E0
:104FA00040403D3C24FF2424487E4943662B2FFC8F
:104FB0002F2BFF0929F620C0887E0903205454793D
:104FC000410000447D413048484A32384040227A0E
:104FD000007A0A0A727D0D19317D2629292F28268B
:104FE0002929292630484D40203808080808080893
:104FF0000808382F10C8ACBA2F102834FA00007BEC
:10500000000008142A142222142A1408AA005500A9
:10501000AAAA55AA55AA000000FF00101010FF0010
:10502000141414FF001010FF00FF1010F010F01403
:105030001414FC001414F700FF0000FF00FF141408
:10504000F404FC141417101F10101F101F14141454
:105050001F00101010F0000000001F101010101F93
:1050600010101010F010000000FF101010101010A1
:10507000101010FF10000000FF140000FF00FF00E0
:10508000001F10170000FC04F41414171017141458
:10509000F404F40000FF00F714141414141414F7AB
:1050A00000F7141414171410101F101F141414F404
:1050B000141010F010F000001F101F0000001F144B
:1050C000000000FC140000F010F01010FF10FF149E
:1050D0001414FF141010101F00000000F010FFFF48
:1050E000FFFFFFF0F0F0F0F0FFFFFF000000000016
:1050F000FFFF0F0F0F0F0F3844443844FC4A4A4A51
:10510000347E02020606027E027E02635549416336
:105110003844443C04407E201E2006027E02029950
:10512000A5E7A5991C2A492A1C4C7201724C304AE9
:105130004D4D303048784830BC625A463D3E494972
:1051400049007E0101017E2A2A2A2A2A44445F441A
:105150004440514A444040444A51400000FF01034A
:10516000E080FF000008086B6B0836123624360614
:105170000F090F0600001818000000101000304042
:10518000FF0101001F01011E00191D1712003C3C08
:105190003C3C0000000000000080C0E0F0F8FCFE95
:1051A000000103070F1F3F7F4300504F5349580032
:1051B0002E00002020202020202020202828282801
:1051C00028202020202020202020202020202020D7
:1051D0002020208810101010101010101010101027
:1051E0001010100404040404040404040410101037
:1051F00010101010414141414141010101010101E3
:105200000101010101010101010101010101101070
:1052100010101010424242424242020202020202B6
:105220000202020202020202020202020202101042
:10523000101020000000000000000000000000002E
:10524000000000000000000000000000000000005E
:10525000000000000000000000000000000000004E
:10526000000000000000000000000000000000003E
:10527000000000000000000000000000000000002E
:10528000000000000000000000000000000000001E
:10529000000000000000000000000000000000000E
:1052A00000000000000000000000000000000000FE
:1052B00000000000000000000000000000000000EE
:1052C00000000000000000000000000000000000DE
:1052D00000000000000000000000000000000000CE
:1052E00000000000000000000000000000000000BE
:1052F00000000000000000000000000000000000AE
:10530000000000000000000000000000000000009D
:1053100000000000232D302B2000686C4C006566D7
:1053200067454647003031323334353637383941F6
:10533000424344454600303132333435363738390C
:0C5340006162636465660000000000000C
:08534C0010B1FF7F0100000019
:1053540000000000B4520000D4520000F4520000D7
:105364000000000000000000000000000000000039
:105374000000000000000000000000000000000029
:105384000000000000000000000000000000000019
:105394000000000000000000000000000000000009
:1053A40000000000000000000000000000000000F9
:1053B4000000002000200040000000000000000069
:1053C40000000000000000000000000000000000D9
:1053D40000000000000000000000000000000000C9
:1053E40000000000000000000000000000000000B9
:1053F4000000000000000000000000808080000029
:10540400000000000000000000000000008080C0D8
:10541400C0000000000000000000000000000000C8
:105424000000000000000000000000000000000078
:105434000000000000000000000000000000000068
:105444000000000000000000000000000000000058
:1054540080C0E0F0F8FCF8E000000000000000006C
:105464000000000000000000008080808080008038
:105474008000000000808080808000FFFFFF00002B
:1054840000008080808000008080000080FFFF801A
:105494008000808000808080800080800000000088
:1054A40000808000008C8E84000080F8F8F8800072
:1054B400000000000000000000000000F0F0F0F028
:1054C400F0F0F0F0F0F0F0F0E0E0C08000E0FCFE7E
:1054D400FFFFFF7FFFFFFFFFFF0000000000000051
:1054E40000000000000000FEFFC70101010183FF6E
:1054F400FF00007CFEC70101010183FFFFFF0038AC
:10550400FEC78301010183C7FFFF000001FFFF0104
:105514000100FFFF0701010100007FFF8000000080
:10552400FFFF7F0000FFFFFF000001FFFFFF0100FE
:10553400000000000000000000000000030F3F7F97
:105544007FFFFFFFFFFFFFFFE7C7C78F8F9FBFFFEF
:10555400FFC3C0F0FFFFFFFFFFFCFCFCFCFCFCFCF6
:10556400FCF8F8F0F0E0C0000103030303030103B7
:105574000300000000010303030301010301000011
:1055840000010303030301010303000000030300FC
:1055940000000303000000000000000103030303F4
:1055A40003010000000103010000000303010000E7
:1055B4000000000000000000000000000000008067
:1055C400C0E0F0F9FFFFFFFFFF3F1F0F87C7F7FFA2
:1055D400FF1F1F3DFCF8F8F8F87C7DFFFFFFFFFF7D
:1055E400FFFFFF7F3F0F0700303000000000000086
:1055F40000000000000000000000000000000000A7
:10560400FEFEFC000000000000000000000000009E
:10561400000000000000000000E0C00000000000E6
:105624000000000000003030000000000000000016
:1056340000000000000000000000000000C0FEFFA9
:10564400FFFFFFFFFFFFFFFF7F7F3F1F0F071F7F4E
:10565400FFFFF8F8FFFFFFFFFFFEF8E00000000186
:105664000000000000000000FEFE000000FCFEFC44
:105674000C06060EFCF80000F0F81C0E0606060CDC
:10568400FFFFFF0000FEFE00000000FCFEFC00180F
:105694003C7E66E6CE84000006FFFF0606FCFEFCA8
:1056A4000C0606060000FEFE0000C0F8FC4E46464E
:1056B400464E7C7840183C76E6CECC800000000054
:1056C40000000000000000000000000000000000D6
:1056D40001070F1F1F3F3F3F3F1F0F030000000044
:1056E40000000000000000000F0F0000000F0F0F6B
:1056F400000000000F0F000003070E0C18180C0622
:105704000F0F0F0000010F0E0C180C0F07010004FF
:105714000E0C180C0F070000000F0F00000F0F0FE6
:105724000000000000000F0F00000007070C0C1819
:105734001C0C060600040E0C180C0F0700000000D9
:105744000000000000000000000000000000000055
:105754000000000000000000000000000000000045
:105764000000000000000000000000000000000035
:105774000000000000000000000000000000000025
:105784000000000000000000000000000000000015
:105794000000000000000000000000000000000005
:1057A40000000000000000000000000000000000F5
:1057B40000000000000000000000000040000000A5
:1057C4000090D0034300000000000000000000002F
:1057D40000000000000000000000000000000000C5
:1057E4000000000043000000000000000000000072
:1057F40000000000000000000000000000000000A5
:105804000000000043000000000000000000000051
:105814000000000000000000000000000000000084
:105824000000000043000000000000000000000031
:105834000000000000000000000000000000000064
:105844000000000043000000000000000000000011
:105854000000000000000000000000000000000044
:1058640000000000430000000000000000000000F1
:105874000000000000000000000000000000000024
:1058840000000000430000000000000000000000D1
:105894000000000000000000000000000000000004
:1058A40000000000B53C0000253A000000000000A4
:1058B400B2510000B0510000195300001953000008
:1058C4001953000019530000195300001953000024
:1058D400195300001953000019530000FFFFFFFF84
:1058E400FFFFFFFFFFFFFFFFFFFF00000100415329
:1058F40043494900000000000000000000000000CF
:1059040000000000000000000000000000004153FF
:1059140043494900000000000000000000000000AE
:105924000000000000000000000000000000000073
:0C59340025040000010400000000000039
:04000003000036C5FE
:00000001FF
